{
  "_format": "hh-sol-artifact-1",
  "contractName": "MyERC20",
  "sourceName": "contracts/MyERC20.sol",
  "abi": [
    {
      "inputs": [
        {
          "internalType": "string",
          "name": "_name",
          "type": "string"
        },
        {
          "internalType": "uint256",
          "name": "_initialSupply",
          "type": "uint256"
        },
        {
          "internalType": "uint8",
          "name": "_decimals",
          "type": "uint8"
        },
        {
          "internalType": "string",
          "name": "_symbol",
          "type": "string"
        }
      ],
      "stateMutability": "nonpayable",
      "type": "constructor"
    },
    {
      "anonymous": false,
      "inputs": [
        {
          "indexed": true,
          "internalType": "address",
          "name": "owner",
          "type": "address"
        },
        {
          "indexed": true,
          "internalType": "address",
          "name": "spender",
          "type": "address"
        },
        {
          "indexed": false,
          "internalType": "uint256",
          "name": "value",
          "type": "uint256"
        }
      ],
      "name": "Approval",
      "type": "event"
    },
    {
      "anonymous": false,
      "inputs": [
        {
          "indexed": true,
          "internalType": "address",
          "name": "from",
          "type": "address"
        },
        {
          "indexed": true,
          "internalType": "address",
          "name": "to",
          "type": "address"
        },
        {
          "indexed": false,
          "internalType": "uint256",
          "name": "value",
          "type": "uint256"
        }
      ],
      "name": "Transfer",
      "type": "event"
    },
    {
      "inputs": [],
      "name": "_owner",
      "outputs": [
        {
          "internalType": "address",
          "name": "",
          "type": "address"
        }
      ],
      "stateMutability": "view",
      "type": "function"
    },
    {
      "inputs": [
        {
          "internalType": "address",
          "name": "owner",
          "type": "address"
        },
        {
          "internalType": "address",
          "name": "spender",
          "type": "address"
        }
      ],
      "name": "allowance",
      "outputs": [
        {
          "internalType": "uint256",
          "name": "",
          "type": "uint256"
        }
      ],
      "stateMutability": "view",
      "type": "function"
    },
    {
      "inputs": [
        {
          "internalType": "address",
          "name": "spender",
          "type": "address"
        },
        {
          "internalType": "uint256",
          "name": "amount",
          "type": "uint256"
        }
      ],
      "name": "approve",
      "outputs": [
        {
          "internalType": "bool",
          "name": "",
          "type": "bool"
        }
      ],
      "stateMutability": "nonpayable",
      "type": "function"
    },
    {
      "inputs": [
        {
          "internalType": "address",
          "name": "account",
          "type": "address"
        }
      ],
      "name": "balanceOf",
      "outputs": [
        {
          "internalType": "uint256",
          "name": "",
          "type": "uint256"
        }
      ],
      "stateMutability": "view",
      "type": "function"
    },
    {
      "inputs": [
        {
          "internalType": "address",
          "name": "from",
          "type": "address"
        },
        {
          "internalType": "uint256",
          "name": "amount",
          "type": "uint256"
        }
      ],
      "name": "burn",
      "outputs": [
        {
          "internalType": "bool",
          "name": "",
          "type": "bool"
        }
      ],
      "stateMutability": "nonpayable",
      "type": "function"
    },
    {
      "inputs": [],
      "name": "decimals",
      "outputs": [
        {
          "internalType": "uint8",
          "name": "",
          "type": "uint8"
        }
      ],
      "stateMutability": "view",
      "type": "function"
    },
    {
      "inputs": [
        {
          "internalType": "address",
          "name": "to",
          "type": "address"
        },
        {
          "internalType": "uint256",
          "name": "amount",
          "type": "uint256"
        }
      ],
      "name": "mint",
      "outputs": [
        {
          "internalType": "bool",
          "name": "",
          "type": "bool"
        }
      ],
      "stateMutability": "nonpayable",
      "type": "function"
    },
    {
      "inputs": [],
      "name": "name",
      "outputs": [
        {
          "internalType": "string",
          "name": "",
          "type": "string"
        }
      ],
      "stateMutability": "view",
      "type": "function"
    },
    {
      "inputs": [],
      "name": "symbol",
      "outputs": [
        {
          "internalType": "string",
          "name": "",
          "type": "string"
        }
      ],
      "stateMutability": "view",
      "type": "function"
    },
    {
      "inputs": [],
      "name": "totalSupply",
      "outputs": [
        {
          "internalType": "uint256",
          "name": "",
          "type": "uint256"
        }
      ],
      "stateMutability": "view",
      "type": "function"
    },
    {
      "inputs": [
        {
          "internalType": "address",
          "name": "to",
          "type": "address"
        },
        {
          "internalType": "uint256",
          "name": "amount",
          "type": "uint256"
        }
      ],
      "name": "transfer",
      "outputs": [
        {
          "internalType": "bool",
          "name": "",
          "type": "bool"
        }
      ],
      "stateMutability": "nonpayable",
      "type": "function"
    },
    {
      "inputs": [
        {
          "internalType": "address",
          "name": "from",
          "type": "address"
        },
        {
          "internalType": "address",
          "name": "to",
          "type": "address"
        },
        {
          "internalType": "uint256",
          "name": "amount",
          "type": "uint256"
        }
      ],
      "name": "transferFrom",
      "outputs": [
        {
          "internalType": "bool",
          "name": "",
          "type": "bool"
        }
      ],
      "stateMutability": "nonpayable",
      "type": "function"
    }
  ],
  "bytecode": "0x608060405234801561001057600080fd5b50604051611e67380380611e6783398181016040528101906100329190610320565b336000806101000a81548173ffffffffffffffffffffffffffffffffffffffff021916908373ffffffffffffffffffffffffffffffffffffffff160217905550836002908161008191906105d6565b50806003908161009191906105d6565b5060008260ff16116100a45760126100a6565b815b600460006101000a81548160ff021916908360ff160217905550600460009054906101000a900460ff16600a6100dc919061080a565b836100e79190610855565b600181905550600154600560003373ffffffffffffffffffffffffffffffffffffffff1673ffffffffffffffffffffffffffffffffffffffff1681526020019081526020016000208190555050505050610897565b6000604051905090565b600080fd5b600080fd5b600080fd5b600080fd5b6000601f19601f8301169050919050565b7f4e487b7100000000000000000000000000000000000000000000000000000000600052604160045260246000fd5b6101a38261015a565b810181811067ffffffffffffffff821117156101c2576101c161016b565b5b80604052505050565b60006101d561013c565b90506101e1828261019a565b919050565b600067ffffffffffffffff8211156102015761020061016b565b5b61020a8261015a565b9050602081019050919050565b60005b8381101561023557808201518184015260208101905061021a565b60008484015250505050565b600061025461024f846101e6565b6101cb565b9050828152602081018484840111156102705761026f610155565b5b61027b848285610217565b509392505050565b600082601f83011261029857610297610150565b5b81516102a8848260208601610241565b91505092915050565b6000819050919050565b6102c4816102b1565b81146102cf57600080fd5b50565b6000815190506102e1816102bb565b92915050565b600060ff82169050919050565b6102fd816102e7565b811461030857600080fd5b50565b60008151905061031a816102f4565b92915050565b6000806000806080858703121561033a57610339610146565b5b600085015167ffffffffffffffff8111156103585761035761014b565b5b61036487828801610283565b9450506020610375878288016102d2565b93505060406103868782880161030b565b925050606085015167ffffffffffffffff8111156103a7576103a661014b565b5b6103b387828801610283565b91505092959194509250565b600081519050919050565b7f4e487b7100000000000000000000000000000000000000000000000000000000600052602260045260246000fd5b6000600282049050600182168061041157607f821691505b602082108103610424576104236103ca565b5b50919050565b60008190508160005260206000209050919050565b60006020601f8301049050919050565b600082821b905092915050565b60006008830261048c7fffffffffffffffffffffffffffffffffffffffffffffffffffffffffffffffff8261044f565b610496868361044f565b95508019841693508086168417925050509392505050565b6000819050919050565b60006104d36104ce6104c9846102b1565b6104ae565b6102b1565b9050919050565b6000819050919050565b6104ed836104b8565b6105016104f9826104da565b84845461045c565b825550505050565b600090565b610516610509565b6105218184846104e4565b505050565b5b818110156105455761053a60008261050e565b600181019050610527565b5050565b601f82111561058a5761055b8161042a565b6105648461043f565b81016020851015610573578190505b61058761057f8561043f565b830182610526565b50505b505050565b600082821c905092915050565b60006105ad6000198460080261058f565b1980831691505092915050565b60006105c6838361059c565b9150826002028217905092915050565b6105df826103bf565b67ffffffffffffffff8111156105f8576105f761016b565b5b61060282546103f9565b61060d828285610549565b600060209050601f831160018114610640576000841561062e578287015190505b61063885826105ba565b8655506106a0565b601f19841661064e8661042a565b60005b8281101561067657848901518255600182019150602085019450602081019050610651565b86831015610693578489015161068f601f89168261059c565b8355505b6001600288020188555050505b505050505050565b7f4e487b7100000000000000000000000000000000000000000000000000000000600052601160045260246000fd5b60008160011c9050919050565b6000808291508390505b600185111561072e5780860481111561070a576107096106a8565b5b60018516156107195780820291505b8081029050610727856106d7565b94506106ee565b94509492505050565b6000826107475760019050610803565b816107555760009050610803565b816001811461076b5760028114610775576107a4565b6001915050610803565b60ff841115610787576107866106a8565b5b8360020a91508482111561079e5761079d6106a8565b5b50610803565b5060208310610133831016604e8410600b84101617156107d95782820a9050838111156107d4576107d36106a8565b5b610803565b6107e684848460016106e4565b925090508184048111156107fd576107fc6106a8565b5b81810290505b9392505050565b6000610815826102b1565b9150610820836102e7565b925061084d7fffffffffffffffffffffffffffffffffffffffffffffffffffffffffffffffff8484610737565b905092915050565b6000610860826102b1565b915061086b836102b1565b9250828202610879816102b1565b915082820484148315176108905761088f6106a8565b5b5092915050565b6115c1806108a66000396000f3fe608060405234801561001057600080fd5b50600436106100b45760003560e01c806370a082311161007157806370a08231146101a357806395d89b41146101d35780639dc29fac146101f1578063a9059cbb14610221578063b2bdfa7b14610251578063dd62ed3e1461026f576100b4565b806306fdde03146100b9578063095ea7b3146100d757806318160ddd1461010757806323b872dd14610125578063313ce5671461015557806340c10f1914610173575b600080fd5b6100c161029f565b6040516100ce9190610ffc565b60405180910390f35b6100f160048036038101906100ec91906110b7565b61032d565b6040516100fe9190611112565b60405180910390f35b61010f61048d565b60405161011c919061113c565b60405180910390f35b61013f600480360381019061013a9190611157565b610497565b60405161014c9190611112565b60405180910390f35b61015d610789565b60405161016a91906111c6565b60405180910390f35b61018d600480360381019061018891906110b7565b61079c565b60405161019a9190611112565b60405180910390f35b6101bd60048036038101906101b891906111e1565b61097b565b6040516101ca919061113c565b60405180910390f35b6101db6109c4565b6040516101e89190610ffc565b60405180910390f35b61020b600480360381019061020691906110b7565b610a52565b6040516102189190611112565b60405180910390f35b61023b600480360381019061023691906110b7565b610cb3565b6040516102489190611112565b60405180910390f35b610259610ec1565b604051610266919061121d565b60405180910390f35b61028960048036038101906102849190611238565b610ee5565b604051610296919061113c565b60405180910390f35b600280546102ac906112a7565b80601f01602080910402602001604051908101604052809291908181526020018280546102d8906112a7565b80156103255780601f106102fa57610100808354040283529160200191610325565b820191906000526020600020905b81548152906001019060200180831161030857829003601f168201915b505050505081565b60008073ffffffffffffffffffffffffffffffffffffffff168373ffffffffffffffffffffffffffffffffffffffff160361039d576040517f08c379a000000000000000000000000000000000000000000000000000000000815260040161039490611324565b60405180910390fd5b81600660003373ffffffffffffffffffffffffffffffffffffffff1673ffffffffffffffffffffffffffffffffffffffff16815260200190815260200160002060008573ffffffffffffffffffffffffffffffffffffffff1673ffffffffffffffffffffffffffffffffffffffff168152602001908152602001600020819055508273ffffffffffffffffffffffffffffffffffffffff163373ffffffffffffffffffffffffffffffffffffffff167f8c5be1e5ebec7d5bd14f71427d1e84f3dd0314c0f7b2291e5b200ac8c7c3b9258460405161047b919061113c565b60405180910390a36001905092915050565b6000600154905090565b600081600560008673ffffffffffffffffffffffffffffffffffffffff1673ffffffffffffffffffffffffffffffffffffffff16815260200190815260200160002054101561051b576040517f08c379a000000000000000000000000000000000000000000000000000000000815260040161051290611390565b60405180910390fd5b81600660008673ffffffffffffffffffffffffffffffffffffffff1673ffffffffffffffffffffffffffffffffffffffff16815260200190815260200160002060003373ffffffffffffffffffffffffffffffffffffffff1673ffffffffffffffffffffffffffffffffffffffff1681526020019081526020016000205410156105da576040517f08c379a00000000000000000000000000000000000000000000000000000000081526004016105d1906113fc565b60405180910390fd5b81600560008673ffffffffffffffffffffffffffffffffffffffff1673ffffffffffffffffffffffffffffffffffffffff1681526020019081526020016000206000828254610629919061144b565b9250508190555081600560008573ffffffffffffffffffffffffffffffffffffffff1673ffffffffffffffffffffffffffffffffffffffff168152602001908152602001600020600082825461067f919061147f565b9250508190555081600660008673ffffffffffffffffffffffffffffffffffffffff1673ffffffffffffffffffffffffffffffffffffffff16815260200190815260200160002060003373ffffffffffffffffffffffffffffffffffffffff1673ffffffffffffffffffffffffffffffffffffffff1681526020019081526020016000206000828254610712919061144b565b925050819055508273ffffffffffffffffffffffffffffffffffffffff168473ffffffffffffffffffffffffffffffffffffffff167fddf252ad1be2c89b69c2b068fc378daa952ba7f163c4a11628f55a4df523b3ef84604051610776919061113c565b60405180910390a3600190509392505050565b600460009054906101000a900460ff1681565b60008060009054906101000a900473ffffffffffffffffffffffffffffffffffffffff1673ffffffffffffffffffffffffffffffffffffffff163373ffffffffffffffffffffffffffffffffffffffff161461082d576040517f08c379a0000000000000000000000000000000000000000000000000000000008152600401610824906114ff565b60405180910390fd5b600073ffffffffffffffffffffffffffffffffffffffff168373ffffffffffffffffffffffffffffffffffffffff160361089c576040517f08c379a000000000000000000000000000000000000000000000000000000000815260040161089390611324565b60405180910390fd5b81600160008282546108ae919061147f565b9250508190555081600560008573ffffffffffffffffffffffffffffffffffffffff1673ffffffffffffffffffffffffffffffffffffffff1681526020019081526020016000206000828254610904919061147f565b925050819055508273ffffffffffffffffffffffffffffffffffffffff16600073ffffffffffffffffffffffffffffffffffffffff167fddf252ad1be2c89b69c2b068fc378daa952ba7f163c4a11628f55a4df523b3ef84604051610969919061113c565b60405180910390a36001905092915050565b6000600560008373ffffffffffffffffffffffffffffffffffffffff1673ffffffffffffffffffffffffffffffffffffffff168152602001908152602001600020549050919050565b600380546109d1906112a7565b80601f01602080910402602001604051908101604052809291908181526020018280546109fd906112a7565b8015610a4a5780601f10610a1f57610100808354040283529160200191610a4a565b820191906000526020600020905b815481529060010190602001808311610a2d57829003601f168201915b505050505081565b60008060009054906101000a900473ffffffffffffffffffffffffffffffffffffffff1673ffffffffffffffffffffffffffffffffffffffff163373ffffffffffffffffffffffffffffffffffffffff1614610ae3576040517f08c379a0000000000000000000000000000000000000000000000000000000008152600401610ada906114ff565b60405180910390fd5b600073ffffffffffffffffffffffffffffffffffffffff168373ffffffffffffffffffffffffffffffffffffffff1603610b52576040517f08c379a0000000000000000000000000000000000000000000000000000000008152600401610b4990611324565b60405180910390fd5b81600560008573ffffffffffffffffffffffffffffffffffffffff1673ffffffffffffffffffffffffffffffffffffffff168152602001908152602001600020541015610bd4576040517f08c379a0000000000000000000000000000000000000000000000000000000008152600401610bcb9061156b565b60405180910390fd5b81600560008573ffffffffffffffffffffffffffffffffffffffff1673ffffffffffffffffffffffffffffffffffffffff1681526020019081526020016000206000828254610c23919061144b565b925050819055508160016000828254610c3c919061144b565b92505081905550600073ffffffffffffffffffffffffffffffffffffffff168373ffffffffffffffffffffffffffffffffffffffff167fddf252ad1be2c89b69c2b068fc378daa952ba7f163c4a11628f55a4df523b3ef84604051610ca1919061113c565b60405180910390a36001905092915050565b600081600560003373ffffffffffffffffffffffffffffffffffffffff1673ffffffffffffffffffffffffffffffffffffffff168152602001908152602001600020541015610d37576040517f08c379a0000000000000000000000000000000000000000000000000000000008152600401610d2e90611390565b60405180910390fd5b600073ffffffffffffffffffffffffffffffffffffffff168373ffffffffffffffffffffffffffffffffffffffff1603610da6576040517f08c379a0000000000000000000000000000000000000000000000000000000008152600401610d9d90611324565b60405180910390fd5b81600560003373ffffffffffffffffffffffffffffffffffffffff1673ffffffffffffffffffffffffffffffffffffffff1681526020019081526020016000206000828254610df5919061144b565b9250508190555081600560008573ffffffffffffffffffffffffffffffffffffffff1673ffffffffffffffffffffffffffffffffffffffff1681526020019081526020016000206000828254610e4b919061147f565b925050819055508273ffffffffffffffffffffffffffffffffffffffff163373ffffffffffffffffffffffffffffffffffffffff167fddf252ad1be2c89b69c2b068fc378daa952ba7f163c4a11628f55a4df523b3ef84604051610eaf919061113c565b60405180910390a36001905092915050565b60008054906101000a900473ffffffffffffffffffffffffffffffffffffffff1681565b6000600660008473ffffffffffffffffffffffffffffffffffffffff1673ffffffffffffffffffffffffffffffffffffffff16815260200190815260200160002060008373ffffffffffffffffffffffffffffffffffffffff1673ffffffffffffffffffffffffffffffffffffffff16815260200190815260200160002054905092915050565b600081519050919050565b600082825260208201905092915050565b60005b83811015610fa6578082015181840152602081019050610f8b565b60008484015250505050565b6000601f19601f8301169050919050565b6000610fce82610f6c565b610fd88185610f77565b9350610fe8818560208601610f88565b610ff181610fb2565b840191505092915050565b600060208201905081810360008301526110168184610fc3565b905092915050565b600080fd5b600073ffffffffffffffffffffffffffffffffffffffff82169050919050565b600061104e82611023565b9050919050565b61105e81611043565b811461106957600080fd5b50565b60008135905061107b81611055565b92915050565b6000819050919050565b61109481611081565b811461109f57600080fd5b50565b6000813590506110b18161108b565b92915050565b600080604083850312156110ce576110cd61101e565b5b60006110dc8582860161106c565b92505060206110ed858286016110a2565b9150509250929050565b60008115159050919050565b61110c816110f7565b82525050565b60006020820190506111276000830184611103565b92915050565b61113681611081565b82525050565b6000602082019050611151600083018461112d565b92915050565b6000806000606084860312156111705761116f61101e565b5b600061117e8682870161106c565b935050602061118f8682870161106c565b92505060406111a0868287016110a2565b9150509250925092565b600060ff82169050919050565b6111c0816111aa565b82525050565b60006020820190506111db60008301846111b7565b92915050565b6000602082840312156111f7576111f661101e565b5b60006112058482850161106c565b91505092915050565b61121781611043565b82525050565b6000602082019050611232600083018461120e565b92915050565b6000806040838503121561124f5761124e61101e565b5b600061125d8582860161106c565b925050602061126e8582860161106c565b9150509250929050565b7f4e487b7100000000000000000000000000000000000000000000000000000000600052602260045260246000fd5b600060028204905060018216806112bf57607f821691505b6020821081036112d2576112d1611278565b5b50919050565b7f494e56414c494420414444524553530000000000000000000000000000000000600082015250565b600061130e600f83610f77565b9150611319826112d8565b602082019050919050565b6000602082019050818103600083015261133d81611301565b9050919050565b7f594f55522042414c414e4345204953204e4f5420454e4f554748000000000000600082015250565b600061137a601a83610f77565b915061138582611344565b602082019050919050565b600060208201905081810360008301526113a98161136d565b9050919050565b7f494e53554646494349454e5420414c4c4f57414e434500000000000000000000600082015250565b60006113e6601683610f77565b91506113f1826113b0565b602082019050919050565b60006020820190508181036000830152611415816113d9565b9050919050565b7f4e487b7100000000000000000000000000000000000000000000000000000000600052601160045260246000fd5b600061145682611081565b915061146183611081565b92508282039050818111156114795761147861141c565b5b92915050565b600061148a82611081565b915061149583611081565b92508282019050808211156114ad576114ac61141c565b5b92915050565b7f594f5520415245204e4f5420544845204f574e45520000000000000000000000600082015250565b60006114e9601583610f77565b91506114f4826114b3565b602082019050919050565b60006020820190508181036000830152611518816114dc565b9050919050565b7f494e53554646494349454e542042414c414e4345000000000000000000000000600082015250565b6000611555601483610f77565b91506115608261151f565b602082019050919050565b6000602082019050818103600083015261158481611548565b905091905056fea2646970667358221220797db5b651d1e243fe4f149c3fd1befcaefc99ec64d7b983947149a639eb70c064736f6c634300081c0033",
  "linkReferences": {},
  "deployedLinkReferences": {}
}