{
  "_format": "hh-sol-artifact-1",
  "contractName": "EventContract",
  "sourceName": "contracts/Events.sol",
  "abi": [
    {
      "anonymous": false,
      "inputs": [
        {
          "indexed": false,
          "internalType": "uint256",
          "name": "_id",
          "type": "uint256"
        },
        {
          "indexed": false,
          "internalType": "address",
          "name": "_organizer",
          "type": "address"
        }
      ],
      "name": "EventCreated",
      "type": "event"
    },
    {
      "anonymous": false,
      "inputs": [
        {
          "indexed": false,
          "internalType": "uint256",
          "name": "_id",
          "type": "uint256"
        },
        {
          "indexed": false,
          "internalType": "address",
          "name": "_guest",
          "type": "address"
        },
        {
          "indexed": false,
          "internalType": "uint256",
          "name": "_timestamp",
          "type": "uint256"
        }
      ],
      "name": "EventRegistered",
      "type": "event"
    },
    {
      "anonymous": false,
      "inputs": [
        {
          "indexed": false,
          "internalType": "uint256",
          "name": "_id",
          "type": "uint256"
        },
        {
          "indexed": false,
          "internalType": "address",
          "name": "_guest",
          "type": "address"
        },
        {
          "indexed": false,
          "internalType": "uint256",
          "name": "_timestamp",
          "type": "uint256"
        }
      ],
      "name": "ticketPurchased",
      "type": "event"
    },
    {
      "inputs": [
        {
          "internalType": "string",
          "name": "_title",
          "type": "string"
        },
        {
          "internalType": "string",
          "name": "_desc",
          "type": "string"
        },
        {
          "internalType": "uint256",
          "name": "_startDate",
          "type": "uint256"
        },
        {
          "internalType": "uint256",
          "name": "_endDate",
          "type": "uint256"
        },
        {
          "internalType": "enum EventContract.EventType",
          "name": "_type",
          "type": "uint8"
        },
        {
          "internalType": "uint32",
          "name": "_egc",
          "type": "uint32"
        }
      ],
      "name": "createEvent",
      "outputs": [],
      "stateMutability": "nonpayable",
      "type": "function"
    },
    {
      "inputs": [
        {
          "internalType": "uint256",
          "name": "_eventId",
          "type": "uint256"
        },
        {
          "internalType": "string",
          "name": "_ticketname",
          "type": "string"
        },
        {
          "internalType": "string",
          "name": "_ticketSymbol",
          "type": "string"
        }
      ],
      "name": "createEventTicket",
      "outputs": [],
      "stateMutability": "nonpayable",
      "type": "function"
    },
    {
      "inputs": [
        {
          "internalType": "uint256",
          "name": "",
          "type": "uint256"
        }
      ],
      "name": "eventTickets",
      "outputs": [
        {
          "internalType": "contract TicketNFT",
          "name": "",
          "type": "address"
        }
      ],
      "stateMutability": "view",
      "type": "function"
    },
    {
      "inputs": [],
      "name": "event_count",
      "outputs": [
        {
          "internalType": "uint256",
          "name": "",
          "type": "uint256"
        }
      ],
      "stateMutability": "view",
      "type": "function"
    },
    {
      "inputs": [
        {
          "internalType": "uint256",
          "name": "",
          "type": "uint256"
        }
      ],
      "name": "events",
      "outputs": [
        {
          "internalType": "string",
          "name": "_title",
          "type": "string"
        },
        {
          "internalType": "string",
          "name": "_description",
          "type": "string"
        },
        {
          "internalType": "uint256",
          "name": "_startDate",
          "type": "uint256"
        },
        {
          "internalType": "uint256",
          "name": "_endDate",
          "type": "uint256"
        },
        {
          "internalType": "enum EventContract.EventType",
          "name": "_type",
          "type": "uint8"
        },
        {
          "internalType": "uint32",
          "name": "_expectedGuestCount",
          "type": "uint32"
        },
        {
          "internalType": "uint32",
          "name": "_registeredGuestCount",
          "type": "uint32"
        },
        {
          "internalType": "uint32",
          "name": "_verifiedGuestCount",
          "type": "uint32"
        },
        {
          "internalType": "address",
          "name": "_organizer",
          "type": "address"
        },
        {
          "internalType": "address",
          "name": "_ticketAddress",
          "type": "address"
        }
      ],
      "stateMutability": "view",
      "type": "function"
    },
    {
      "inputs": [
        {
          "internalType": "uint256",
          "name": "_eventId",
          "type": "uint256"
        },
        {
          "internalType": "address",
          "name": "_account",
          "type": "address"
        }
      ],
      "name": "purchaseTicket",
      "outputs": [
        {
          "internalType": "uint256",
          "name": "",
          "type": "uint256"
        }
      ],
      "stateMutability": "nonpayable",
      "type": "function"
    },
    {
      "inputs": [
        {
          "internalType": "uint256",
          "name": "_event_id",
          "type": "uint256"
        }
      ],
      "name": "registerForEvent",
      "outputs": [],
      "stateMutability": "nonpayable",
      "type": "function"
    }
  ],
  "bytecode": "0x6080604052348015600f57600080fd5b50613ca18061001f6000396000f3fe608060405234801561001057600080fd5b506004361061007d5760003560e01c8063406db8431161005b578063406db8431461010957806389a46c9214610125578063ed964e7914610155578063fd804bd7146101715761007d565b80630b791430146100825780632bea0559146100bb5780633d0c7eb6146100d9575b600080fd5b61009c6004803603810190610097919061139d565b61018d565b6040516100b29a99989796959493929190611540565b60405180910390f35b6100c361036e565b6040516100d091906115ea565b60405180910390f35b6100f360048036038101906100ee9190611631565b610374565b60405161010091906115ea565b60405180910390f35b610123600480360381019061011e919061139d565b610829565b005b61013f600480360381019061013a919061139d565b610d36565b60405161014c91906116d0565b60405180910390f35b61016f600480360381019061016a9190611820565b610d69565b005b61018b600480360381019061018691906118fc565b610fcd565b005b60016020528060005260406000206000915090508060000180546101b0906119f0565b80601f01602080910402602001604051908101604052809291908181526020018280546101dc906119f0565b80156102295780601f106101fe57610100808354040283529160200191610229565b820191906000526020600020905b81548152906001019060200180831161020c57829003601f168201915b50505050509080600101805461023e906119f0565b80601f016020809104026020016040519081016040528092919081815260200182805461026a906119f0565b80156102b75780601f1061028c576101008083540402835291602001916102b7565b820191906000526020600020905b81548152906001019060200180831161029a57829003601f168201915b5050505050908060020154908060030154908060040160009054906101000a900460ff16908060040160019054906101000a900463ffffffff16908060040160059054906101000a900463ffffffff16908060040160099054906101000a900463ffffffff16908060050160009054906101000a900473ffffffffffffffffffffffffffffffffffffffff16908060060160009054906101000a900473ffffffffffffffffffffffffffffffffffffffff1690508a565b60005481565b600080548311158015610388575060008314155b6103c7576040517f08c379a00000000000000000000000000000000000000000000000000000000081526004016103be90611a6d565b60405180910390fd5b600060016000858152602001908152602001600020604051806101400160405290816000820180546103f8906119f0565b80601f0160208091040260200160405190810160405280929190818152602001828054610424906119f0565b80156104715780601f1061044657610100808354040283529160200191610471565b820191906000526020600020905b81548152906001019060200180831161045457829003601f168201915b5050505050815260200160018201805461048a906119f0565b80601f01602080910402602001604051908101604052809291908181526020018280546104b6906119f0565b80156105035780601f106104d857610100808354040283529160200191610503565b820191906000526020600020905b8154815290600101906020018083116104e657829003601f168201915b5050505050815260200160028201548152602001600382015481526020016004820160009054906101000a900460ff16600181111561054557610544611469565b5b600181111561055757610556611469565b5b81526020016004820160019054906101000a900463ffffffff1663ffffffff1663ffffffff1681526020016004820160059054906101000a900463ffffffff1663ffffffff1663ffffffff1681526020016004820160099054906101000a900463ffffffff1663ffffffff1663ffffffff1681526020016005820160009054906101000a900473ffffffffffffffffffffffffffffffffffffffff1673ffffffffffffffffffffffffffffffffffffffff1673ffffffffffffffffffffffffffffffffffffffff1681526020016006820160009054906101000a900473ffffffffffffffffffffffffffffffffffffffff1673ffffffffffffffffffffffffffffffffffffffff1673ffffffffffffffffffffffffffffffffffffffff16815250509050600073ffffffffffffffffffffffffffffffffffffffff1681610120015173ffffffffffffffffffffffffffffffffffffffff16036106ef576040517f08c379a00000000000000000000000000000000000000000000000000000000081526004016106e690611ad9565b60405180910390fd5b600081610120015190508073ffffffffffffffffffffffffffffffffffffffff1663d0def521856040518263ffffffff1660e01b81526004016107329190611b45565b600060405180830381600087803b15801561074c57600080fd5b505af1158015610760573d6000803e3d6000fd5b5050505060008173ffffffffffffffffffffffffffffffffffffffff166370a08231866040518263ffffffff1660e01b815260040161079f9190611b73565b602060405180830381865afa1580156107bc573d6000803e3d6000fd5b505050506040513d601f19601f820116820180604052508101906107e09190611ba3565b90507fd360a4d18ebae7f6087a40d264bd9e34819dd214266b2a9e3e7ea075f65bc25b86334260405161081593929190611bd0565b60405180910390a180935050505092915050565b600073ffffffffffffffffffffffffffffffffffffffff163373ffffffffffffffffffffffffffffffffffffffff1603610898576040517f08c379a000000000000000000000000000000000000000000000000000000000815260040161088f90611c53565b60405180910390fd5b600060016000838152602001908152602001600020905060005482111580156108c2575060008214155b610901576040517f08c379a00000000000000000000000000000000000000000000000000000000081526004016108f890611a6d565b60405180910390fd5b42816003015411610947576040517f08c379a000000000000000000000000000000000000000000000000000000000815260040161093e90611cbf565b60405180910390fd5b8060040160019054906101000a900463ffffffff1663ffffffff168160040160059054906101000a900463ffffffff1663ffffffff16106109bd576040517f08c379a00000000000000000000000000000000000000000000000000000000081526004016109b490611d2b565b60405180910390fd5b60001515600260003373ffffffffffffffffffffffffffffffffffffffff1673ffffffffffffffffffffffffffffffffffffffff168152602001908152602001600020600084815260200190815260200160002060009054906101000a900460ff16151514610a61576040517f08c379a0000000000000000000000000000000000000000000000000000000008152600401610a5890611d97565b60405180910390fd5b600180811115610a7457610a73611469565b5b8160040160009054906101000a900460ff166001811115610a9857610a97611469565b5b03610bcc573073ffffffffffffffffffffffffffffffffffffffff16633d0c7eb683336040518363ffffffff1660e01b8152600401610ad8929190611db7565b6020604051808303816000875af1158015610af7573d6000803e3d6000fd5b505050506040513d601f19601f82011682018060405250810190610b1b9190611ba3565b5060018160040160058282829054906101000a900463ffffffff16610b409190611e0f565b92506101000a81548163ffffffff021916908363ffffffff1602179055506001600260003373ffffffffffffffffffffffffffffffffffffffff1673ffffffffffffffffffffffffffffffffffffffff168152602001908152602001600020600084815260200190815260200160002060006101000a81548160ff021916908315150217905550610cf7565b60018160040160058282829054906101000a900463ffffffff16610bf09190611e0f565b92506101000a81548163ffffffff021916908363ffffffff1602179055503073ffffffffffffffffffffffffffffffffffffffff16633d0c7eb683336040518363ffffffff1660e01b8152600401610c49929190611db7565b6020604051808303816000875af1158015610c68573d6000803e3d6000fd5b505050506040513d601f19601f82011682018060405250810190610c8c9190611ba3565b506001600260003373ffffffffffffffffffffffffffffffffffffffff1673ffffffffffffffffffffffffffffffffffffffff168152602001908152602001600020600084815260200190815260200160002060006101000a81548160ff0219169083151502179055505b7f992fab36eae044cb10bbca598664ac6112f28a1b0a180a89a47e9b3cc5e2d384823342604051610d2a93929190611bd0565b60405180910390a15050565b60036020528060005260406000206000915054906101000a900473ffffffffffffffffffffffffffffffffffffffff1681565b6000548311158015610d7c575060008314155b610dbb576040517f08c379a0000000000000000000000000000000000000000000000000000000008152600401610db290611a6d565b60405180910390fd5b60006001600085815260200190815260200160002090508060050160009054906101000a900473ffffffffffffffffffffffffffffffffffffffff1673ffffffffffffffffffffffffffffffffffffffff163373ffffffffffffffffffffffffffffffffffffffff1614610e64576040517f08c379a0000000000000000000000000000000000000000000000000000000008152600401610e5b90611e93565b60405180910390fd5b600073ffffffffffffffffffffffffffffffffffffffff168160060160009054906101000a900473ffffffffffffffffffffffffffffffffffffffff1673ffffffffffffffffffffffffffffffffffffffff1614610ef7576040517f08c379a0000000000000000000000000000000000000000000000000000000008152600401610eee90611eff565b60405180910390fd5b60008383604051610f0790611346565b610f12929190611f91565b604051809103906000f080158015610f2e573d6000803e3d6000fd5b509050806003600087815260200190815260200160002060006101000a81548173ffffffffffffffffffffffffffffffffffffffff021916908373ffffffffffffffffffffffffffffffffffffffff160217905550808260060160006101000a81548173ffffffffffffffffffffffffffffffffffffffff021916908373ffffffffffffffffffffffffffffffffffffffff1602179055505050505050565b60006001600054610fde9190611fdb565b9050600073ffffffffffffffffffffffffffffffffffffffff163373ffffffffffffffffffffffffffffffffffffffff160361104f576040517f08c379a00000000000000000000000000000000000000000000000000000000081526004016110469061205b565b60405180910390fd5b428511611091576040517f08c379a0000000000000000000000000000000000000000000000000000000008152600401611088906120c7565b60405180910390fd5b8385106110d3576040517f08c379a00000000000000000000000000000000000000000000000000000000081526004016110ca90612133565b60405180910390fd5b600060405180610140016040528089815260200188815260200187815260200186815260200185600181111561110c5761110b611469565b5b81526020018463ffffffff168152602001600063ffffffff168152602001600063ffffffff1681526020013373ffffffffffffffffffffffffffffffffffffffff168152602001600073ffffffffffffffffffffffffffffffffffffffff1681525090508060016000848152602001908152602001600020600082015181600001908161119991906122f5565b5060208201518160010190816111af91906122f5565b50604082015181600201556060820151816003015560808201518160040160006101000a81548160ff021916908360018111156111ef576111ee611469565b5b021790555060a08201518160040160016101000a81548163ffffffff021916908363ffffffff16021790555060c08201518160040160056101000a81548163ffffffff021916908363ffffffff16021790555060e08201518160040160096101000a81548163ffffffff021916908363ffffffff1602179055506101008201518160050160006101000a81548173ffffffffffffffffffffffffffffffffffffffff021916908373ffffffffffffffffffffffffffffffffffffffff1602179055506101208201518160060160006101000a81548173ffffffffffffffffffffffffffffffffffffffff021916908373ffffffffffffffffffffffffffffffffffffffff160217905550905050816000819055507fe43349c008949cf6b65249356e6f918d4aaa0ca79f2b1166df4a4a98c9c16de28233604051611334929190611db7565b60405180910390a15050505050505050565b6118a4806123c883390190565b6000604051905090565b600080fd5b600080fd5b6000819050919050565b61137a81611367565b811461138557600080fd5b50565b60008135905061139781611371565b92915050565b6000602082840312156113b3576113b261135d565b5b60006113c184828501611388565b91505092915050565b600081519050919050565b600082825260208201905092915050565b60005b838110156114045780820151818401526020810190506113e9565b60008484015250505050565b6000601f19601f8301169050919050565b600061142c826113ca565b61143681856113d5565b93506114468185602086016113e6565b61144f81611410565b840191505092915050565b61146381611367565b82525050565b7f4e487b7100000000000000000000000000000000000000000000000000000000600052602160045260246000fd5b600281106114a9576114a8611469565b5b50565b60008190506114ba82611498565b919050565b60006114ca826114ac565b9050919050565b6114da816114bf565b82525050565b600063ffffffff82169050919050565b6114f9816114e0565b82525050565b600073ffffffffffffffffffffffffffffffffffffffff82169050919050565b600061152a826114ff565b9050919050565b61153a8161151f565b82525050565b600061014082019050818103600083015261155b818d611421565b9050818103602083015261156f818c611421565b905061157e604083018b61145a565b61158b606083018a61145a565b61159860808301896114d1565b6115a560a08301886114f0565b6115b260c08301876114f0565b6115bf60e08301866114f0565b6115cd610100830185611531565b6115db610120830184611531565b9b9a5050505050505050505050565b60006020820190506115ff600083018461145a565b92915050565b61160e8161151f565b811461161957600080fd5b50565b60008135905061162b81611605565b92915050565b600080604083850312156116485761164761135d565b5b600061165685828601611388565b92505060206116678582860161161c565b9150509250929050565b6000819050919050565b600061169661169161168c846114ff565b611671565b6114ff565b9050919050565b60006116a88261167b565b9050919050565b60006116ba8261169d565b9050919050565b6116ca816116af565b82525050565b60006020820190506116e560008301846116c1565b92915050565b600080fd5b600080fd5b7f4e487b7100000000000000000000000000000000000000000000000000000000600052604160045260246000fd5b61172d82611410565b810181811067ffffffffffffffff8211171561174c5761174b6116f5565b5b80604052505050565b600061175f611353565b905061176b8282611724565b919050565b600067ffffffffffffffff82111561178b5761178a6116f5565b5b61179482611410565b9050602081019050919050565b82818337600083830152505050565b60006117c36117be84611770565b611755565b9050828152602081018484840111156117df576117de6116f0565b5b6117ea8482856117a1565b509392505050565b600082601f830112611807576118066116eb565b5b81356118178482602086016117b0565b91505092915050565b6000806000606084860312156118395761183861135d565b5b600061184786828701611388565b935050602084013567ffffffffffffffff81111561186857611867611362565b5b611874868287016117f2565b925050604084013567ffffffffffffffff81111561189557611894611362565b5b6118a1868287016117f2565b9150509250925092565b600281106118b857600080fd5b50565b6000813590506118ca816118ab565b92915050565b6118d9816114e0565b81146118e457600080fd5b50565b6000813590506118f6816118d0565b92915050565b60008060008060008060c087890312156119195761191861135d565b5b600087013567ffffffffffffffff81111561193757611936611362565b5b61194389828a016117f2565b965050602087013567ffffffffffffffff81111561196457611963611362565b5b61197089828a016117f2565b955050604061198189828a01611388565b945050606061199289828a01611388565b93505060806119a389828a016118bb565b92505060a06119b489828a016118e7565b9150509295509295509295565b7f4e487b7100000000000000000000000000000000000000000000000000000000600052602260045260246000fd5b60006002820490506001821680611a0857607f821691505b602082108103611a1b57611a1a6119c1565b5b50919050565b7f4556454e5420444f45534e542045584953540000000000000000000000000000600082015250565b6000611a576012836113d5565b9150611a6282611a21565b602082019050919050565b60006020820190508181036000830152611a8681611a4a565b9050919050565b7f5449434b455420444f45534e5420455849535400000000000000000000000000600082015250565b6000611ac36013836113d5565b9150611ace82611a8d565b602082019050919050565b60006020820190508181036000830152611af281611ab6565b9050919050565b7f687474703a2f2f7777772e77332e6f72672f323030302f737667000000000000600082015250565b6000611b2f601a836113d5565b9150611b3a82611af9565b602082019050919050565b6000604082019050611b5a6000830184611531565b8181036020830152611b6b81611b22565b905092915050565b6000602082019050611b886000830184611531565b92915050565b600081519050611b9d81611371565b92915050565b600060208284031215611bb957611bb861135d565b5b6000611bc784828501611b8e565b91505092915050565b6000606082019050611be5600083018661145a565b611bf26020830185611531565b611bff604083018461145a565b949350505050565b7f494e56414c494420414444524553530000000000000000000000000000000000600082015250565b6000611c3d600f836113d5565b9150611c4882611c07565b602082019050919050565b60006020820190508181036000830152611c6c81611c30565b9050919050565b7f4556454e542048415320454e4445440000000000000000000000000000000000600082015250565b6000611ca9600f836113d5565b9150611cb482611c73565b602082019050919050565b60006020820190508181036000830152611cd881611c9c565b9050919050565b7f524547495354524154494f4e20434c4f53454400000000000000000000000000600082015250565b6000611d156013836113d5565b9150611d2082611cdf565b602082019050919050565b60006020820190508181036000830152611d4481611d08565b9050919050565b7f414c524541445920524547495354455245440000000000000000000000000000600082015250565b6000611d816012836113d5565b9150611d8c82611d4b565b602082019050919050565b60006020820190508181036000830152611db081611d74565b9050919050565b6000604082019050611dcc600083018561145a565b611dd96020830184611531565b9392505050565b7f4e487b7100000000000000000000000000000000000000000000000000000000600052601160045260246000fd5b6000611e1a826114e0565b9150611e25836114e0565b9250828201905063ffffffff811115611e4157611e40611de0565b5b92915050565b7f4f4e4c59204f5247414e495a45522043414e2043524541544500000000000000600082015250565b6000611e7d6019836113d5565b9150611e8882611e47565b602082019050919050565b60006020820190508181036000830152611eac81611e70565b9050919050565b7f5449434b455420414c5245414459204352454154454400000000000000000000600082015250565b6000611ee96016836113d5565b9150611ef482611eb3565b602082019050919050565b60006020820190508181036000830152611f1881611edc565b9050919050565b7f646174613a696d6167652f7376672b786d6c3b6261736536342c50484e325a7960008201527f4234620000000000000000000000000000000000000000000000000000000000602082015250565b6000611f7b6023836113d5565b9150611f8682611f1f565b604082019050919050565b60006060820190508181036000830152611fab8185611421565b90508181036020830152611fbf8184611421565b90508181036040830152611fd281611f6e565b90509392505050565b6000611fe682611367565b9150611ff183611367565b925082820190508082111561200957612008611de0565b5b92915050565b7f554e415554484f52495a45442043414c4c455200000000000000000000000000600082015250565b60006120456013836113d5565b91506120508261200f565b602082019050919050565b6000602082019050818103600083015261207481612038565b9050919050565b7f53544152542044415445204d55535420424520494e2046555455524500000000600082015250565b60006120b1601c836113d5565b91506120bc8261207b565b602082019050919050565b600060208201905081810360008301526120e0816120a4565b9050919050565b7f454e4444415445204d5553542042452047524541544552000000000000000000600082015250565b600061211d6017836113d5565b9150612128826120e7565b602082019050919050565b6000602082019050818103600083015261214c81612110565b9050919050565b60008190508160005260206000209050919050565b60006020601f8301049050919050565b600082821b905092915050565b6000600883026121b57fffffffffffffffffffffffffffffffffffffffffffffffffffffffffffffffff82612178565b6121bf8683612178565b95508019841693508086168417925050509392505050565b60006121f26121ed6121e884611367565b611671565b611367565b9050919050565b6000819050919050565b61220c836121d7565b612220612218826121f9565b848454612185565b825550505050565b600090565b612235612228565b612240818484612203565b505050565b5b818110156122645761225960008261222d565b600181019050612246565b5050565b601f8211156122a95761227a81612153565b61228384612168565b81016020851015612292578190505b6122a661229e85612168565b830182612245565b50505b505050565b600082821c905092915050565b60006122cc600019846008026122ae565b1980831691505092915050565b60006122e583836122bb565b9150826002028217905092915050565b6122fe826113ca565b67ffffffffffffffff811115612317576123166116f5565b5b61232182546119f0565b61232c828285612268565b600060209050601f83116001811461235f576000841561234d578287015190505b61235785826122d9565b8655506123bf565b601f19841661236d86612153565b60005b8281101561239557848901518255600182019150602085019450602081019050612370565b868310156123b257848901516123ae601f8916826122bb565b8355505b6001600288020188555050505b50505050505056fe608060405234801561001057600080fd5b506040516118a43803806118a4833981810160405281019061003291906101df565b806002908161004191906104a7565b50826000908161005191906104a7565b50816001908161006191906104a7565b50505050610579565b6000604051905090565b600080fd5b600080fd5b600080fd5b600080fd5b6000601f19601f8301169050919050565b7f4e487b7100000000000000000000000000000000000000000000000000000000600052604160045260246000fd5b6100d182610088565b810181811067ffffffffffffffff821117156100f0576100ef610099565b5b80604052505050565b600061010361006a565b905061010f82826100c8565b919050565b600067ffffffffffffffff82111561012f5761012e610099565b5b61013882610088565b9050602081019050919050565b60005b83811015610163578082015181840152602081019050610148565b60008484015250505050565b600061018261017d84610114565b6100f9565b90508281526020810184848401111561019e5761019d610083565b5b6101a9848285610145565b509392505050565b600082601f8301126101c6576101c561007e565b5b81516101d684826020860161016f565b91505092915050565b6000806000606084860312156101f8576101f7610074565b5b600084015167ffffffffffffffff81111561021657610215610079565b5b610222868287016101b1565b935050602084015167ffffffffffffffff81111561024357610242610079565b5b61024f868287016101b1565b925050604084015167ffffffffffffffff8111156102705761026f610079565b5b61027c868287016101b1565b9150509250925092565b600081519050919050565b7f4e487b7100000000000000000000000000000000000000000000000000000000600052602260045260246000fd5b600060028204905060018216806102d857607f821691505b6020821081036102eb576102ea610291565b5b50919050565b60008190508160005260206000209050919050565b60006020601f8301049050919050565b600082821b905092915050565b6000600883026103537fffffffffffffffffffffffffffffffffffffffffffffffffffffffffffffffff82610316565b61035d8683610316565b95508019841693508086168417925050509392505050565b6000819050919050565b6000819050919050565b60006103a461039f61039a84610375565b61037f565b610375565b9050919050565b6000819050919050565b6103be83610389565b6103d26103ca826103ab565b848454610323565b825550505050565b600090565b6103e76103da565b6103f28184846103b5565b505050565b5b818110156104165761040b6000826103df565b6001810190506103f8565b5050565b601f82111561045b5761042c816102f1565b61043584610306565b81016020851015610444578190505b61045861045085610306565b8301826103f7565b50505b505050565b600082821c905092915050565b600061047e60001984600802610460565b1980831691505092915050565b6000610497838361046d565b9150826002028217905092915050565b6104b082610286565b67ffffffffffffffff8111156104c9576104c8610099565b5b6104d382546102c0565b6104de82828561041a565b600060209050601f83116001811461051157600084156104ff578287015190505b610509858261048b565b865550610571565b601f19841661051f866102f1565b60005b8281101561054757848901518255600182019150602085019450602081019050610522565b868310156105645784890151610560601f89168261046d565b8355505b6001600288020188555050505b505050505050565b61131c806105886000396000f3fe608060405234801561001057600080fd5b50600436106100885760003560e01c806370a082311161005b57806370a082311461011357806395d89b4114610143578063cf34842514610161578063d0def5211461019157610088565b806306fdde031461008d57806323b872dd146100ab57806355f804b3146100c75780636352211e146100e3575b600080fd5b6100956101ad565b6040516100a29190610a13565b60405180910390f35b6100c560048036038101906100c09190610add565b61023b565b005b6100e160048036038101906100dc9190610c65565b61047c565b005b6100fd60048036038101906100f89190610cae565b61048f565b60405161010a9190610cea565b60405180910390f35b61012d60048036038101906101289190610d05565b610540565b60405161013a9190610d41565b60405180910390f35b61014b6105f7565b6040516101589190610a13565b60405180910390f35b61017b60048036038101906101769190610cae565b610685565b6040516101889190610a13565b60405180910390f35b6101ab60048036038101906101a69190610d5c565b6107cc565b005b600080546101ba90610de7565b80601f01602080910402602001604051908101604052809291908181526020018280546101e690610de7565b80156102335780601f1061020857610100808354040283529160200191610233565b820191906000526020600020905b81548152906001019060200180831161021657829003601f168201915b505050505081565b8273ffffffffffffffffffffffffffffffffffffffff1661025b8261048f565b73ffffffffffffffffffffffffffffffffffffffff16146102b1576040517f08c379a00000000000000000000000000000000000000000000000000000000081526004016102a890610e64565b60405180910390fd5b600073ffffffffffffffffffffffffffffffffffffffff168273ffffffffffffffffffffffffffffffffffffffff1603610320576040517f08c379a000000000000000000000000000000000000000000000000000000000815260040161031790610ed0565b60405180910390fd5b600460008473ffffffffffffffffffffffffffffffffffffffff1673ffffffffffffffffffffffffffffffffffffffff168152602001908152602001600020600081548092919061037090610f1f565b9190505550600460008373ffffffffffffffffffffffffffffffffffffffff1673ffffffffffffffffffffffffffffffffffffffff16815260200190815260200160002060008154809291906103c590610f48565b9190505550816003600083815260200190815260200160002060006101000a81548173ffffffffffffffffffffffffffffffffffffffff021916908373ffffffffffffffffffffffffffffffffffffffff160217905550808273ffffffffffffffffffffffffffffffffffffffff168473ffffffffffffffffffffffffffffffffffffffff167fddf252ad1be2c89b69c2b068fc378daa952ba7f163c4a11628f55a4df523b3ef60405160405180910390a4505050565b806002908161048b919061113c565b5050565b6000806003600084815260200190815260200160002060009054906101000a900473ffffffffffffffffffffffffffffffffffffffff169050600073ffffffffffffffffffffffffffffffffffffffff168173ffffffffffffffffffffffffffffffffffffffff1603610537576040517f08c379a000000000000000000000000000000000000000000000000000000000815260040161052e9061125a565b60405180910390fd5b80915050919050565b60008073ffffffffffffffffffffffffffffffffffffffff168273ffffffffffffffffffffffffffffffffffffffff16036105b0576040517f08c379a00000000000000000000000000000000000000000000000000000000081526004016105a7906112c6565b60405180910390fd5b600460008373ffffffffffffffffffffffffffffffffffffffff1673ffffffffffffffffffffffffffffffffffffffff168152602001908152602001600020549050919050565b6001805461060490610de7565b80601f016020809104026020016040519081016040528092919081815260200182805461063090610de7565b801561067d5780601f106106525761010080835404028352916020019161067d565b820191906000526020600020905b81548152906001019060200180831161066057829003601f168201915b505050505081565b6060600073ffffffffffffffffffffffffffffffffffffffff166003600084815260200190815260200160002060009054906101000a900473ffffffffffffffffffffffffffffffffffffffff1673ffffffffffffffffffffffffffffffffffffffff1603610729576040517f08c379a00000000000000000000000000000000000000000000000000000000081526004016107209061125a565b60405180910390fd5b60086000838152602001908152602001600020805461074790610de7565b80601f016020809104026020016040519081016040528092919081815260200182805461077390610de7565b80156107c05780601f10610795576101008083540402835291602001916107c0565b820191906000526020600020905b8154815290600101906020018083116107a357829003601f168201915b50505050509050919050565b600073ffffffffffffffffffffffffffffffffffffffff168273ffffffffffffffffffffffffffffffffffffffff160361083b576040517f08c379a0000000000000000000000000000000000000000000000000000000008152600401610832906112c6565b60405180910390fd5b6007600081548092919061084e90610f48565b919050555060006007549050826003600083815260200190815260200160002060006101000a81548173ffffffffffffffffffffffffffffffffffffffff021916908373ffffffffffffffffffffffffffffffffffffffff160217905550600460008473ffffffffffffffffffffffffffffffffffffffff1673ffffffffffffffffffffffffffffffffffffffff16815260200190815260200160002060008154809291906108fc90610f48565b919050555081600860008381526020019081526020016000209081610921919061113c565b50808373ffffffffffffffffffffffffffffffffffffffff16600073ffffffffffffffffffffffffffffffffffffffff167fddf252ad1be2c89b69c2b068fc378daa952ba7f163c4a11628f55a4df523b3ef60405160405180910390a4505050565b600081519050919050565b600082825260208201905092915050565b60005b838110156109bd5780820151818401526020810190506109a2565b60008484015250505050565b6000601f19601f8301169050919050565b60006109e582610983565b6109ef818561098e565b93506109ff81856020860161099f565b610a08816109c9565b840191505092915050565b60006020820190508181036000830152610a2d81846109da565b905092915050565b6000604051905090565b600080fd5b600080fd5b600073ffffffffffffffffffffffffffffffffffffffff82169050919050565b6000610a7482610a49565b9050919050565b610a8481610a69565b8114610a8f57600080fd5b50565b600081359050610aa181610a7b565b92915050565b6000819050919050565b610aba81610aa7565b8114610ac557600080fd5b50565b600081359050610ad781610ab1565b92915050565b600080600060608486031215610af657610af5610a3f565b5b6000610b0486828701610a92565b9350506020610b1586828701610a92565b9250506040610b2686828701610ac8565b9150509250925092565b600080fd5b600080fd5b7f4e487b7100000000000000000000000000000000000000000000000000000000600052604160045260246000fd5b610b72826109c9565b810181811067ffffffffffffffff82111715610b9157610b90610b3a565b5b80604052505050565b6000610ba4610a35565b9050610bb08282610b69565b919050565b600067ffffffffffffffff821115610bd057610bcf610b3a565b5b610bd9826109c9565b9050602081019050919050565b82818337600083830152505050565b6000610c08610c0384610bb5565b610b9a565b905082815260208101848484011115610c2457610c23610b35565b5b610c2f848285610be6565b509392505050565b600082601f830112610c4c57610c4b610b30565b5b8135610c5c848260208601610bf5565b91505092915050565b600060208284031215610c7b57610c7a610a3f565b5b600082013567ffffffffffffffff811115610c9957610c98610a44565b5b610ca584828501610c37565b91505092915050565b600060208284031215610cc457610cc3610a3f565b5b6000610cd284828501610ac8565b91505092915050565b610ce481610a69565b82525050565b6000602082019050610cff6000830184610cdb565b92915050565b600060208284031215610d1b57610d1a610a3f565b5b6000610d2984828501610a92565b91505092915050565b610d3b81610aa7565b82525050565b6000602082019050610d566000830184610d32565b92915050565b60008060408385031215610d7357610d72610a3f565b5b6000610d8185828601610a92565b925050602083013567ffffffffffffffff811115610da257610da1610a44565b5b610dae85828601610c37565b9150509250929050565b7f4e487b7100000000000000000000000000000000000000000000000000000000600052602260045260246000fd5b60006002820490506001821680610dff57607f821691505b602082108103610e1257610e11610db8565b5b50919050565b7f4e6f74206f776e65720000000000000000000000000000000000000000000000600082015250565b6000610e4e60098361098e565b9150610e5982610e18565b602082019050919050565b60006020820190508181036000830152610e7d81610e41565b9050919050565b7f496e76616c696420726563697069656e74000000000000000000000000000000600082015250565b6000610eba60118361098e565b9150610ec582610e84565b602082019050919050565b60006020820190508181036000830152610ee981610ead565b9050919050565b7f4e487b7100000000000000000000000000000000000000000000000000000000600052601160045260246000fd5b6000610f2a82610aa7565b915060008203610f3d57610f3c610ef0565b5b600182039050919050565b6000610f5382610aa7565b91507fffffffffffffffffffffffffffffffffffffffffffffffffffffffffffffffff8203610f8557610f84610ef0565b5b600182019050919050565b60008190508160005260206000209050919050565b60006020601f8301049050919050565b600082821b905092915050565b600060088302610ff27fffffffffffffffffffffffffffffffffffffffffffffffffffffffffffffffff82610fb5565b610ffc8683610fb5565b95508019841693508086168417925050509392505050565b6000819050919050565b600061103961103461102f84610aa7565b611014565b610aa7565b9050919050565b6000819050919050565b6110538361101e565b61106761105f82611040565b848454610fc2565b825550505050565b600090565b61107c61106f565b61108781848461104a565b505050565b5b818110156110ab576110a0600082611074565b60018101905061108d565b5050565b601f8211156110f0576110c181610f90565b6110ca84610fa5565b810160208510156110d9578190505b6110ed6110e585610fa5565b83018261108c565b50505b505050565b600082821c905092915050565b6000611113600019846008026110f5565b1980831691505092915050565b600061112c8383611102565b9150826002028217905092915050565b61114582610983565b67ffffffffffffffff81111561115e5761115d610b3a565b5b6111688254610de7565b6111738282856110af565b600060209050601f8311600181146111a65760008415611194578287015190505b61119e8582611120565b865550611206565b601f1984166111b486610f90565b60005b828110156111dc578489015182556001820191506020850194506020810190506111b7565b868310156111f957848901516111f5601f891682611102565b8355505b6001600288020188555050505b505050505050565b7f546f6b656e20646f6573206e6f74206578697374000000000000000000000000600082015250565b600061124460148361098e565b915061124f8261120e565b602082019050919050565b6000602082019050818103600083015261127381611237565b9050919050565b7f496e76616c696420616464726573730000000000000000000000000000000000600082015250565b60006112b0600f8361098e565b91506112bb8261127a565b602082019050919050565b600060208201905081810360008301526112df816112a3565b905091905056fea26469706673582212202fc4ccd38b01d01a94f346f0c4d7f24f83b2d028cd6a20a1ece840a2aaffe5f164736f6c634300081c0033a2646970667358221220f3b6a32b9d6dcea3dbc9c0d6480da0d27f13fa647bbb9a28a03128bba845681564736f6c634300081c0033",
  "linkReferences": {},
  "deployedLinkReferences": {}
}